:0400000007EF00F016
:0A000800608203ED08F090EF0BF0AA
:0510000000256900005D
:101006000600FACF51F0FBCF52F0F2A80DEF08F030
:101016000FEF08F018EF08F0F2A214EF08F016EF41
:1010260008F018EF08F0F8EC0BF0F0A61DEF08F04A
:101036001FEF08F028EF08F0F0A024EF08F026EFE5
:1010460008F028EF08F0F6EC0BF0F0A82DEF08F00A
:101056002FEF08F038EF08F0F0A234EF08F036EF83
:1010660008F038EF08F0F4EC0BF0F2A63DEF08F0CC
:101076003FEF08F05AEF08F0F2A044EF08F046EF11
:1010860008F05AEF08F081A84BEF08F04DEF08F092
:101096005AEF08F02204D8A453EF08F055EF08F0F1
:1010A6005AEF08F0000E226E010EF2EC0BF0F2A6DB
:1010B6005FEF08F061EF08F07CEF08F0F2A066EF52
:1010C60008F068EF08F07CEF08F081B86DEF08F0E3
:1010D6006FEF08F07CEF08F02250D8A475EF08F007
:1010E60077EF08F07CEF08F0010E226E000EF2ECAE
:1010F6000BF0F2A681EF08F083EF08F09EEF08F000
:10110600F2A088EF08F08AEF08F09EEF08F081AAB7
:101116008FEF08F091EF08F09EEF08F02104D8A4B5
:1011260097EF08F099EF08F09EEF08F0000E216E99
:10113600010EF0EC0BF0F2A6A3EF08F0A5EF08F015
:10114600C0EF08F0F2A0AAEF08F0ACEF08F0C0EF8D
:1011560008F081BAB1EF08F0B3EF08F0C0EF08F07D
:101166002150D8A4B9EF08F0BBEF08F0C0EF08F0A3
:10117600010E216E000EF0EC0BF0F2A6C5EF08F0A2
:10118600C7EF08F0E2EF08F0F2A0CCEF08F0CEEFE0
:1011960008F0E2EF08F081ACD3EF08F0D5EF08F0E5
:1011A600E2EF08F02004D8A4DBEF08F0DDEF08F04A
:1011B600E2EF08F0000E206E010EEEEC0BF0F2A648
:1011C600E7EF08F0E9EF08F004EF09F0F2A0EEEF20
:1011D60008F0F0EF08F004EF09F081BCF5EF08F035
:1011E600F7EF08F004EF09F02050D8A4FDEF08F05F
:1011F600FFEF08F004EF09F0010E206E000EEEEC92
:101206000BF0F2A609EF09F00BEF09F026EF09F053
:10121600F2A010EF09F012EF09F026EF09F081AE07
:1012260017EF09F019EF09F026EF09F01F04D8A40B
:101236001FEF09F021EF09F026EF09F0000E1F6EEF
:10124600010EECEC0BF0F2A62BEF09F02DEF09F0F6
:1012560048EF09F0F2A032EF09F034EF09F048EF59
:1012660009F081BE39EF09F03BEF09F048EF09F0CC
:101276001F50D8A441EF09F043EF09F048EF09F0F9
:10128600010E1F6E000EECEC0BF09DAC4DEF09F05D
:101296004FEF09F058EF09F09EAC54EF09F056EF06
:1012A60009F058EF09F0FAEC0BF0F2AA5DEF09F03D
:1012B6005FEF09F068EF09F0F2A464EF09F066EF5A
:1012C60009F068EF09F0ABEC0BF052C0FBFF51C020
:1012D600FAFF60921100010E5A6E5350D8A476EFB1
:1012E60009F078EF09F0DFEF09F0000E5A6EF4EF1F
:1012F60009F05350D96EDA6ADF30E832E832070B6C
:10130600556E010E566E552A8BEF09F0D89056365B
:10131600552E89EF09F05650FF0A576E5350D96E75
:10132600DA6ADF50070B020DF3500B0FD96EDA6A3B
:10133600DECF58F0DDCF59F058C0D9FF59C0DAFFDB
:101346005750DF165350D96EDA6A54B002D0DF9E7A
:1013560001D0DF8EF4EF09F05350D96EDA6ADF3030
:10136600E832E832070B556E010E566E552ABEEF6F
:1013760009F0D8905636552EBCEF09F05350D96E69
:10138600DA6ADF50070B020DF3500B0FD96EDA6ADB
:10139600DECF57F0DDCF58F057C0D9FF58C0DAFF7F
:1013A6005650DF125350D96EDA6A54B002D0DF9E1F
:1013B60001D0DF8EF4EF09F05450556E566A565040
:1013C600000AD8B4E9EF09F078EF09F05550000AA1
:1013D600D8B47CEF09F0010AD8B4AFEF09F078EF82
:1013E60009F05A501200010E596E5350D8A4FEEF60
:1013F60009F000EF0AF057EF0AF0000E596E77EF8A
:101406000AF05350D96EDA6ADF30E832E832070B59
:10141600546E010E556E542A13EF0AF0D8905536C5
:10142600542E11EF0AF05550FF0A566E5350D96EDE
:10143600DA6ADF50070B020DF350150FD96EDA6A20
:10144600DECF57F0DDCF58F057C0D9FF58C0DAFFCE
:101456005650DF1677EF0AF05350D96EDA6ADF304E
:10146600E832E832070B546E010E556E542A3EEFF1
:101476000AF0D8905536542E3CEF0AF05350D96EE8
:10148600DA6ADF50070B020DF350150FD96EDA6AD0
:10149600DECF56F0DDCF57F056C0D9FF57C0DAFF82
:1014A6005550DF1277EF0AF05350D96EDA6ADFBC77
:1014B6005FEF0AF062EF0AF0010E63EF0AF0000E2A
:1014C600546E556A5550000AD8B46CEF0AF000EF16
:1014D6000AF05450000AD8B404EF0AF0010AD8B44E
:1014E6002FEF0AF000EF0AF0595012005550D8A419
:1014F6007FEF0AF081EF0AF083EF0AF0BAEF0AF005
:10150600D59E55C053F02BEC0BF055C053F0BBECF9
:101516000AF055C053F073EC0BF05550D96EDA6AE9
:10152600040ED926DECF56F0DDCF57F057C056F061
:10153600576A5650D76E5550D96EDA6A040ED926B8
:10154600DF50D66E5550D96EDA6A040ED926DECF34
:101556002BF0DDCF2CF0F294F28A5550D96EDA6A70
:10156600DECF2DF0DDCF2EF0F28EF28CD58E12006E
:101576005350D96EDA6A060ED926DFB4C5EF0AF0E3
:10158600C7EF0AF0E8EF0AF0D58A5350D96EDA6A47
:10159600060ED926DFB2D2EF0AF0D4EF0AF0D7EF63
:1015A6000AF0D588F5EF0AF05350D96EDA6A060EBE
:1015B600D926DFA2E1EF0AF0E3EF0AF0E6EF0AF040
:1015C600D598F5EF0AF0F5EF0AF05350D96EDA6ABE
:1015D600060ED926DFA4F2EF0AF0F4EF0AF0F5EFD3
:1015E6000AF0D59A12005D50D8A4FCEF0AF0FEEF7F
:1015F6000AF000EF0BF02AEF0BF04FC05FF05D50E2
:10160600D96EDA6ADF50070B5E6E5F505E18F80B14
:101616005E185F6E5D50D96EDA6ADF30E832E83206
:10162600070B5E6E5E465E465E465F505E18C70BF3
:101636005E185F6E5F9C5D50D96EDA6ADFAC02D0D1
:101646005F8E01D05F9E5F0E5B6E54EC0BF0120056
:101656005350D96EDA6A060ED926DFA035EF0BF0A5
:1016660037EF0BF046EF0BF0D5865350D96EDA6A9A
:10167600030ED926DF50546ED5505418F80B541863
:10168600D56E53EF0BF05350D96EDA6A060ED92693
:10169600DFB050EF0BF052EF0BF053EF0BF0D586A7
:1016A6001200010E5C6E5B50D8A45CEF0BF05EEF8F
:1016B6000BF062EF0BF0000E5C6E71EF0BF05BC08F
:1016C60053F0F6EC09F05BC053F05B50D96EDA6A62
:1016D600000EDFBE010E546E6EEC09F05C50120077
:1016E6005350D96EDA6A060ED926DFA67DEF0BF0C7
:1016F6007FEF0BF082EF0BF0D58C8FEF0BF0535092
:10170600D96EDA6A060ED926DFB68CEF0BF08EEFAD
:101716000BF08FEF0BF0D59C12008C0EF66E170EA9
:10172600F76E000EF86E00EE01F010EE2AF00900DA
:10173600F5CFEEFFE550E150FAE100EE2BF0250E75
:10174600EE6AE806FDE1609060920001DBEF0BF0C7
:10175600F2942C50D76E2BC0D6FF2D502E10D8B435
:10176600B7EF0BF0B9EF0BF0C5EF0BF002D8C5EFF2
:101776000BF00500FA6E2D50FD6E2E50FE6EFF6AC0
:10178600FA5012001200800F810F820F830F840F10
:10179600890F8A0F8B0F8C0F8D0F920F930F940F5B
:1017A600950F960F01010101CE170002DC0B050211
:1017B6002A0E5D6EF6EC0AF0230E556E79EC0AF0F1
:1017C600E3EF0BF007EF00F02F4A302A010E8B1AD9
:1017D6001200F2901200F2901200F2901200F290B3
:1017E6001200F0921200F0901200F29212009E9CEB
:0217F6001200DF
:020000040030CA
:0E000000FF02091FFF8181FF0FC00FE00F40BC
:00000001FF
