:0400000007EF00F016
:0A000800758207ED08F00CEF0DF013
:101000000041444320544553540025690000060024
:10101000FACF36F0FBCF37F0D9CF38F0DACF39F04E
:10102000F2A815EF08F017EF08F020EF08F0F2A291
:101030001CEF08F01EEF08F020EF08F076EC0EF041
:10104000F0A625EF08F027EF08F030EF08F0F0A049
:101050002CEF08F02EEF08F030EF08F074EC0EF0F3
:10106000F0A835EF08F037EF08F040EF08F0F0A2F5
:101070003CEF08F03EEF08F040EF08F072EC0EF0A5
:10108000F2A645EF08F047EF08F062EF08F0F2A093
:101090004CEF08F04EEF08F062EF08F081A853EF34
:1010A00008F055EF08F062EF08F02204D8A45BEFD7
:1010B00008F05DEF08F062EF08F0000E226E010EFE
:1010C00070EC0EF0F2A667EF08F069EF08F084EF1D
:1010D00008F0F2A06EEF08F070EF08F084EF08F06F
:1010E00081B875EF08F077EF08F084EF08F0225030
:1010F000D8A47DEF08F07FEF08F084EF08F0010E30
:10110000226E000E70EC0EF0F2A689EF08F08BEF65
:1011100008F0A6EF08F0F2A090EF08F092EF08F0C8
:10112000A6EF08F081AA97EF08F099EF08F0A6EF74
:1011300008F02104D8A49FEF08F0A1EF08F0A6EF73
:1011400008F0000E216E010E6EEC0EF0F2A6ABEF71
:1011500008F0ADEF08F0C8EF08F0F2A0B2EF08F029
:10116000B4EF08F0C8EF08F081BAB9EF08F0BBEFB0
:1011700008F0C8EF08F02150D8A4C1EF08F0C3EF81
:1011800008F0C8EF08F0010E216E000E6EEC0EF0B4
:10119000F2A6CDEF08F0CFEF08F0EAEF08F0F2A0EA
:1011A000D4EF08F0D6EF08F0EAEF08F081ACDBEFFF
:1011B00008F0DDEF08F0EAEF08F02004D8A4E3EF30
:1011C00008F0E5EF08F0EAEF08F0000E206E010EDF
:1011D0006CEC0EF0F2A6EFEF08F0F1EF08F00CEF78
:1011E00009F0F2A0F6EF08F0F8EF08F00CEF09F0C4
:1011F00081BCFDEF08F0FFEF08F00CEF09F0205084
:10120000D8A405EF09F007EF09F00CEF09F0010E83
:10121000206E000E6CEC0EF0F2A611EF09F013EF49
:1012200009F02EEF09F0F2A018EF09F01AEF09F01B
:101230002EEF09F081AE1FEF09F021EF09F02EEF3C
:1012400009F01F04D8A427EF09F029EF09F02EEFC9
:1012500009F0000E1F6E010E6AEC0EF0F2A633EFDD
:1012600009F035EF09F050EF09F0F2A03AEF09F07C
:101270003CEF09F050EF09F081BE41EF09F043EF78
:1012800009F050EF09F01F50D8A449EF09F04BEFD7
:1012900009F050EF09F0010E1F6E000E6AEC0EF01F
:1012A0009DAC55EF09F057EF09F060EF09F09EACE7
:1012B0005CEF09F05EEF09F060EF09F036EC0EF03C
:1012C00039C0DAFF38C0D9FF37C0FBFF36C0FAFF9C
:1012D00075921100010E416E3A50D8A472EF09F0D8
:1012E00074EF09F0DBEF09F0000E416EF0EF09F04A
:1012F0003A50D96EDA6ADF30E832E832070B3C6EDA
:10130000010E3D6E3C2A87EF09F0D8903D363C2E09
:1013100085EF09F03D50FF0A3E6E3A50D96EDA6A09
:10132000DF50070B020DF3500B0FD96EDA6ADECFD8
:101330003FF0DDCF40F03FC0D9FF40C0DAFF3E5064
:10134000DF163A50D96EDA6A3BB002D0DF9E01D088
:10135000DF8EF0EF09F03A50D96EDA6ADF30E8320A
:10136000E832070B3C6E010E3D6E3C2ABAEF09F0E5
:10137000D8903D363C2EB8EF09F03A50D96EDA6A73
:10138000DF50070B020DF3500B0FD96EDA6ADECF78
:101390003EF0DDCF3FF03EC0D9FF3FC0DAFF3D5009
:1013A000DF123A50D96EDA6A3BB002D0DF9E01D02C
:1013B000DF8EF0EF09F03B503C6E3D6A3D50000A75
:1013C000D8B4E5EF09F074EF09F03C50000AD8B446
:1013D00078EF09F0010AD8B4ABEF09F074EF09F027
:1013E00041501200010E406E3A50D8A4FAEF09F0B5
:1013F000FCEF09F053EF0AF0000E406E73EF0AF0B5
:101400003A50D96EDA6ADF30E832E832070B3B6EC9
:10141000010E3C6E3B2A0FEF0AF0D8903C363B2E73
:101420000DEF0AF03C50FF0A3D6E3A50D96EDA6A71
:10143000DF50070B020DF350150FD96EDA6ADECFBD
:101440003EF0DDCF3FF03EC0D9FF3FC0DAFF3D5058
:10145000DF1673EF0AF03A50D96EDA6ADF30E832FD
:10146000E832070B3B6E010E3C6E3B2A3AEF0AF066
:10147000D8903C363B2E38EF0AF03A50D96EDA6AF3
:10148000DF50070B020DF350150FD96EDA6ADECF6D
:101490003DF0DDCF3EF03DC0D9FF3EC0DAFF3C500D
:1014A000DF1273EF0AF03A50D96EDA6ADFBC5BEFF5
:1014B0000AF05EEF0AF0010E5FEF0AF0000E3B6EDD
:1014C0003C6A3C50000AD8B468EF0AF0FCEF09F01F
:1014D0003B50000AD8B400EF0AF0010AD8B42BEF51
:1014E0000AF0FCEF09F0405012005150D8A47BEFF5
:1014F0000AF07DEF0AF07FEF0AF0EBEF0AF05128D7
:10150000426EE6EC0DF051C042F0E6EC0DF0000E3C
:101510000001806F51508025020F426EE6EC0DF005
:101520000001802B030E806598EF0AF09AEF0AF015
:101530008AEF0AF0680E526EE40EE82EFED7522EA5
:10154000FCD700D051C048F0380E496EDEEC0CF0EC
:101550001A0E526EF80EE82EFED7522EFCD700D08F
:1015600051C048F0380E496EDEEC0CF0C80EE82E83
:10157000FED751C048F0380E496EDEEC0CF051C079
:1015800048F0010E496EDEEC0CF051C048F0020E3E
:10159000496EDEEC0CF051C048F0060E496EDEECF0
:1015A0000CF051C048F00D0E496EDEEC0CF051C04D
:1015B00048F0280E496EDEEC0CF051C048F0800E69
:1015C000496EDEEC0CF051C04BF0010E4C6E010E7A
:1015D0004D6E5CEC0BF0120015EF0BF092805BEFA0
:1015E0000BF092825BEF0BF092845BEF0BF0928634
:1015F0005BEF0BF0928A5BEF0BF096805BEF0BF0EA
:1016000096825BEF0BF096845BEF0BF093845BEFBD
:101610000BF093865BEF0BF093825BEF0BF09388FC
:101620005BEF0BF093805BEF0BF03A50D96EDA6A08
:10163000050ED926DF503B6E3C6A3C50000AD8B4F8
:1016400024EF0BF05BEF0BF03B50000AD8B4EEEF49
:101650000AF0010AD8B4F1EF0AF0030AD8B4F4EFA3
:101660000AF0010AD8B4F7EF0AF0070AD8B4FAEF83
:101670000AF0010AD8B4FDEF0AF0030AD8B400EF6B
:101680000BF0010AD8B403EF0BF00F0AD8B406EF41
:101690000BF0010AD8B409EF0BF0030AD8B40CEF31
:1016A0000BF0010AD8B40FEF0BF0070AD8B412EF11
:1016B0000BF05BEF0BF01200010E506E4B50D8A4F4
:1016C00064EF0BF066EF0BF092EF0BF0000E506E34
:1016D000AFEF0BF04BC048F04D50800F496EDEEC81
:1016E0000CF0506EAFEF0BF04BC048F04D50C00FF8
:1016F000496EDEEC0CF0506EAFEF0BF04BC048F0D3
:101700004D50940F496EDEEC0CF0506EAFEF0BF0C5
:101710004BC048F04D50D40F496EDEEC0CF0506ECB
:10172000AFEF0BF04C504E6E4F6A4F50000AD8B4DA
:101730009CEF0BF0AFEF0BF04E50010AD8B46AEFFC
:101740000BF0030AD8B474EF0BF0010AD8B47EEFA3
:101750000BF0070AD8B488EF0BF0AFEF0BF0505046
:101760001200010E356E3050D8B4B9EF0BF0BBEF5C
:101770000BF0C3EF0BF03150D8A4C1EF0BF0C3EF67
:101780000BF0C7EF0BF0000E356EFFEF0BF0305093
:10179000D96EDA6A060ED926DFB0D1EF0BF0D3EF9F
:1017A0000BF0EEEF0BF0C350C4CF32F0336A32C00F
:1017B00033F0326A3226000E3322060E346E333492
:1017C00033323232342EDFEF0BF03150D96EDA6A19
:1017D00032C0DEFF33C0DDFFFFEF0BF0C350C4CFDC
:1017E00032F0336A32C033F0326A3226000E3322CE
:1017F0003150D96EDA6A32C0DEFF33C0DDFF3550BA
:1018000012003D50D8A407EF0CF009EF0CF00BEFDD
:101810000CF04DEF0CF0C2903D50D96EDA6A030E19
:10182000D926DF503E6E3E463E463E46C0503E18EC
:10183000C70B3E18C06E3D50D96EDA6A040ED92629
:10184000DF503E6EC0503E18F80B3E18C06E3D5043
:10185000D96EDA6A050ED926DF503E6E3E463E4608
:10186000C2503E18C30B3E18C26E3DC03AF0ECECBD
:101870000AF09D8C9E9CF28EF28C3D50D96EDA6AF5
:10188000DECF53F0DDCF54F03DC03AF0A7EC0DF0C1
:101890003DC03AF084EC0DF0C2801200000180518E
:1018A000D8A455EF0CF057EF0CF059EF0CF080EF87
:1018B0000CF080C04BF081C04CF082C04DF05CEC6D
:1018C0000BF071EF0CF080C048F083C0F6FF100EF3
:1018D000F76EF86A0800F5CF49F0B0EC0CF00001A3
:1018E000832B83C0F6FF100EF76EF86A0800F550E0
:1018F0000009D8A47EEF0CF080EF0CF063EF0CF041
:1019000012004250D8A487EF0CF089EF0CF08DEF55
:101910000CF0000E466EAEEF0CF0000E476E42501B
:101920004724020F3A6E47C044F043C045F0442AB2
:101930009CEF0CF0D8904532442E9AEF0CF04550B5
:10194000010B3B6E6AEC09F0466E472A030E4764B2
:10195000ACEF0CF0AEEF0CF08FEF0CF04650120035
:101960004850D8A4B6EF0CF0B8EF0CF0BCEF0CF078
:10197000000E4A6EDCEF0CF048C03AF0010E3B6EF0
:101980006AEC09F04A6E48C042F049380F0B436ECA
:1019900081EC0CF04A6E48C042F0C7EC0DF04A6E84
:1019A00048C042F049C043F081EC0CF04A6E48C098
:1019B00042F0C7EC0DF04A6E4A5012004850D8A4CD
:1019C000E4EF0CF0E6EF0CF0EAEF0CF0000E4A6EDC
:1019D0000AEF0DF048C03AF0000E3B6E6AEC09F0D9
:1019E0004A6E48C042F049380F0B436E81EC0CF050
:1019F0004A6E48C042F0C7EC0DF04A6E48C042F053
:101A000049C043F081EC0CF04A6E48C042F0C7EC8C
:101A10000DF04A6E4A501200CC0EF66E1C0EF76E98
:101A2000000EF86E00EE8BF010EE08F00900F5CF16
:101A3000EEFFE550E150FAE13C0EF66E1C0EF76E3B
:101A4000000EF86E00EE01F010EE2FF00900F5CF59
:101A5000EEFFE550E150FAE100EE53F0220EEE6A9F
:101A6000E806FDE175907592000137EF0DF0230E49
:101A70003D6E01EC0CF02A0E516E75EC0AF02A0E48
:101A80000001806F010E816F070E826F010E836F60
:101A90004EEC0CF0290E00018A6F960E896F7F0EB6
:101AA000E82EFED7892FFCD78A2FFAD7230E416E56
:101AB000000E426E05EC0EF056EF0DF007EF00F051
:101AC000010E406E3D50D8A468EF0DF06AEF0DF0A6
:101AD0006EEF0DF0000E406E82EF0DF03EC03FF055
:101AE0003F463F46C2503F18C30B3F18C26E3D50A1
:101AF000D96EDA6A050ED9263EC0DFFF3DC03AF046
:101B0000ECEC0AF0405012003A50D96EDA6A060E38
:101B1000D926DFA28EEF0DF090EF0DF094EF0DF0CF
:101B2000C188C18AA6EF0DF03A50D96EDA6A060E66
:101B3000D926DFB29EEF0DF0A0EF0DF0A4EF0DF06F
:101B4000C198C19AA6EF0DF0C198C19A12003A50FF
:101B5000D96EDA6A060ED926DFB0B1EF0DF0B3EF19
:101B60000DF0B6EF0DF0C09EC6EF0DF03A50D96EF5
:101B7000DA6A060ED926DFA0C0EF0DF0C2EF0DF035
:101B8000C5EF0DF0C08EC6EF0DF0C08E12004250B2
:101B9000D8A4CDEF0DF0CFEF0DF0D3EF0DF0000E88
:101BA000436EE4EF0DF042283A6E010E3B6E6AEC94
:101BB00009F0060EE82EFED700D042283A6E000E3D
:101BC0003B6E6AEC09F0436E43501200010E436E07
:101BD0004250D8A4EEEF0DF0F0EF0DF0F4EF0DF061
:101BE000000E436E03EF0EF042C03AF0F2EC09F043
:101BF00042C03AF04250D96EDA6A000EDFBE010EE2
:101C00003B6E6AEC09F043501200010E436E4150E6
:101C1000D8A40DEF0EF00FEF0EF011EF0EF01DEF48
:101C20000EF041C03DF042C03EF060EC0DF04316B6
:101C300041C03AF04DEC0EF043161200800F810FB8
:101C4000820F830F840F890F8A0F8B0F8C0F8D0FDC
:101C5000920F930F940F950F960F01010101BC1C79
:0B1C60000005050001020A121A222AEA
:101C6C009E9C53505410D8B43EEF0EF040EF0EF043
:101C7C004CEF0EF002D84CEF0EF00500FA6E5350FC
:101C8C00FD6E5450FE6EFF6AFA5012001200010EE7
:101C9C003B6E3A50D8A455EF0EF057EF0EF05BEFB9
:101CAC000EF0000E3B6E5CEF0EF0C2823B50120049
:101CBC00230E306E730E316EB1EC0BF06B2A1200EA
:101CCC0000040C14141F0400F2901200F290120085
:101CDC00F2901200F2901200F0921200F0901200AA
:041CEC00F29212005E
:020000040030CA
:0E000000FF02091FFF8181FF0FC00FE00F40BC
:00000001FF
