:0400000007EF00F016
:0A000800658213ED0AF032EF0CF0F0
:0510000000256900005D
:101006004550D8A409EF08F00BEF08F00FEF08F0F1
:10101600000E486E91EF08F0010E486E73EF08F06F
:101026004550D96EDA6A030ED926DF50D8A41EEFD2
:1010360008F020EF08F023EF08F0F19C91EF08F09C
:101046004550D96EDA6A030ED926DE04D8A42EEFEF
:1010560008F030EF08F00BEF08F0F18C91EF08F094
:101066004550D96EDA6A030ED926DF50D8A43EEF72
:1010760008F040EF08F043EF08F0F19A91EF08F01E
:101086004550D96EDA6A030ED926DE04D8A44EEF8F
:1010960008F050EF08F00BEF08F0F18A91EF08F036
:1010A6004550D96EDA6A030ED926DF50D8A45EEF12
:1010B60008F060EF08F063EF08F0F19891EF08F0A0
:1010C6004550D96EDA6A030ED926DE04D8A46EEF2F
:1010D60008F070EF08F00BEF08F0F18891EF08F0D8
:1010E6004550D96EDA6A040ED926DF50466E476A35
:1010F6004750000AD8B482EF08F00BEF08F04650CC
:10110600000AD8B413EF08F0010AD8B433EF08F098
:10111600030AD8B453EF08F00BEF08F0485012005A
:10112600010E4C6E4550D8A49BEF08F09DEF08F0D9
:1011360004EF09F0000E4C6E19EF09F04550D96E18
:10114600DA6ADF30E832E832070B476E010E486E86
:10115600472AB0EF08F0D8904836472EAEEF08F091
:101166004850FF0A496E4550D96EDA6ADF50070BC0
:10117600020DF3500B0FD96EDA6ADECF4AF0DDCFDF
:101186004BF04AC0D9FF4BC0DAFF4950DF16455035
:10119600D96EDA6A46B002D0DF9E01D0DF8E19EF33
:1011A60009F04550D96EDA6ADF30E832E832070BCB
:1011B600476E010E486E472AE3EF08F0D89048368E
:1011C600472EE1EF08F04550D96EDA6ADF50070B7B
:1011D600020DF3500B0FD96EDA6ADECF49F0DDCF80
:1011E6004AF049C0D9FF4AC0DAFF4850DF124550DD
:1011F600D96EDA6A46B002D0DF9E01D0DF8E19EFD3
:1012060009F04650476E486A4850000AD8B40EEFB7
:1012160009F09DEF08F04750000AD8B4A1EF08F096
:10122600010AD8B4D4EF08F09DEF08F04C50120034
:10123600010E4B6E4550D8A423EF09F025EF09F0B7
:101246007CEF09F0000E4B6E9CEF09F04550D96E0D
:10125600DA6ADF30E832E832070B466E010E476E77
:10126600462A38EF09F0D8904736462E36EF09F071
:101276004750FF0A486E4550D96EDA6ADF50070BB1
:10128600020DF350150FD96EDA6ADECF49F0DDCFC5
:101296004AF049C0D9FF4AC0DAFF4850DF169CEF32
:1012A60009F04550D96EDA6ADF30E832E832070BCA
:1012B600466E010E476E462A63EF09F0D890473610
:1012C600462E61EF09F04550D96EDA6ADF50070BFA
:1012D600020DF350150FD96EDA6ADECF48F0DDCF76
:1012E60049F048C0D9FF49C0DAFF4750DF129CEFEA
:1012F60009F04550D96EDA6ADFBC84EF09F087EF52
:1013060009F0010E88EF09F0000E466E476A475055
:10131600000AD8B491EF09F025EF09F04650000A0B
:10132600D8B429EF09F0010AD8B454EF09F025EF33
:1013360009F04B5012004550D8A4A4EF09F0A6EFCF
:1013460009F0AAEF09F0000E486E11EF0AF0010E3F
:10135600486EF3EF09F04550D96EDA6ADE50DE10BA
:10136600D8A4B8EF09F0BAEF09F0BCEF09F0A6EF80
:1013760009F04550D96EDA6ADECF5CF0DDCF5DF05C
:1013860011EF0AF04550D96EDA6ADE50DE10D8A4A5
:10139600CFEF09F0D1EF09F0D3EF09F0A6EF09F08E
:1013A6004550D96EDA6ADECF5AF0DDCF5BF011EF29
:1013B6000AF04550D96EDA6ADE50DE10D8A4E6EFA0
:1013C60009F0E8EF09F0EAEF09F0A6EF09F0455059
:1013D600D96EDA6ADECF58F0DDCF59F011EF0AF098
:1013E6004550D96EDA6A040ED926DF50466E476A32
:1013F6004750000AD8B402EF0AF011EF0AF046503F
:10140600000AD8B4AEEF09F0010AD8B4C5EF09F066
:10141600030AD8B4DCEF09F011EF0AF048501200C5
:101426000600FACF3DF0FBCF3EF0E1CF3FF0E2CF32
:1014360040F0D9CF41F0DACF42F0F3CF43F0F4CF0A
:1014460044F0F2A829EF0AF02BEF0AF036EF0AF083
:10145600F2A230EF0AF032EF0AF036EF0AF095EC1E
:101466000CF05AEF0AF0F0A63BEF0AF03DEF0AF057
:1014760048EF0AF0F0A042EF0AF044EF0AF048EF16
:101486000AF07EEC0CF05AEF0AF0F0A84DEF0AF0E5
:101496004FEF0AF05AEF0AF0F0A254EF0AF056EFB7
:1014A6000AF05AEF0AF067EC0CF05AEF0AF044C063
:1014B600F4FF43C0F3FF42C0DAFF41C0D9FF40C08A
:1014C600E2FF3FC0E1FF3EC0FBFF3DC0FAFF659271
:1014D6001100010E396E3450D8A474EF0AF076EF7D
:1014E6000AF07AEF0AF0000E396EB0EF0AF03450C7
:1014F600D96EDA6ADF30E832E832070B356E010E54
:10150600366E352A89EF0AF0D8903636352E87EFB3
:101516000AF03450D96EDA6ADF50070B020DF35029
:101526000B0FD96EDA6ADECF37F0DDCF38F037C071
:10153600D9FF38C0DAFF3650DF1A3450D96EDA6A6E
:101546003450E16EE26ADFAEB0EF0AF0E7BEAFEF0D
:101556000AF0E78EB0EF0AF0E79E395012004550C8
:10156600D8A4B8EF0AF0BAEF0AF0BEEF0AF0000E00
:10157600486EEBEF0AF0F28EF28CCDEF0AF0F288AD
:10158600010E486EEBEF0AF0F086C3EF0AF0F08822
:10159600C3EF0AF04550D96EDA6A040ED926DF5039
:1015A600466E476A4750000AD8B4DCEF0AF0BAEF35
:1015B6000AF04650000AD8B4C2EF0AF0010AD8B4BD
:1015C600C7EF0AF0030AD8B4CAEF0AF0BAEF0AF076
:1015D600485012004F50D8A4F3EF0AF0F5EF0AF086
:1015E600F9EF0AF0000E516E24EF0BF064C052F0D2
:1015F6004F50D96EDA6ADF50070B506E52505018B2
:10160600F80B5018526E4F50D96EDA6ADF30E83256
:10161600E832070B506E504650465046525050180E
:10162600C70B5018526E529C4F50D96EDA6ADFAC17
:1016360002D0528E01D0529E520E4D6EF7EC0BF038
:10164600516E515012004550D8A42CEF0BF02EEFDE
:101656000BF032EF0BF0000E486E5DEF0BF0010E53
:10166600486E3FEF0BF0F2985DEF0BF0F0965DEFF2
:101676000BF0F0985DEF0BF04550D96EDA6A040E68
:10168600D926DF50466E476A4750000AD8B44EEF57
:101696000BF02EEF0BF04650000AD8B436EF0BF0E5
:1016A600010AD8B439EF0BF0030AD8B43CEF0BF0BB
:1016B6002EEF0BF0485012004550D8A465EF0BF002
:1016C60067EF0BF06BEF0BF0000E486E96EF0BF02A
:1016D600010E486E78EF0BF0F29296EF0BF0F09059
:1016E60096EF0BF0F09296EF0BF04550D96EDA6A52
:1016F600040ED926DF50466E476A4750000AD8B412
:1017060087EF0BF096EF0BF04650000AD8B46FEF58
:101716000BF0010AD8B472EF0BF0030AD8B475EFD8
:101726000BF096EF0BF0485012003A50D8A49EEFFB
:101736000BF0A0EF0BF0A2EF0BF0CCEF0BF061C0BB
:101746003CF03A50D96EDA6ADF50070B3B6E3C50DC
:101756003B18F80B3B183C6E3A50D96EDA6ADF300C
:10176600E832E832070B3B6E3B463B463B463C5075
:101776003B18C70B3B183C6E3C9C3A50D96EDA6A54
:10178600DFAC02D03C8E01D03C9E3C0E346E6CEC3D
:101796000AF012005150D8A4D3EF0BF0D5EF0BF09E
:1017A600D9EF0BF0000E526EF5EF0BF051C045F07D
:1017B60026EC0BF0526E51C045F05FEC0BF0526E0A
:1017C60051C045F003EC08F0526E51C04FF0ACEC3E
:1017D6000CF051C045F09EEC09F051C045F0B2EC5A
:1017E6000AF0526E52501200010E4E6E4D50D8A4A1
:1017F600FFEF0BF001EF0CF005EF0CF0000E4E6E54
:1018060014EF0CF04DC045F01BEC09F04DC045F04F
:101816004D50D96EDA6A000EDFBE010E466E93ECAD
:1018260008F04E5012002B0E516ECDEC0BF0250E2B
:10183600516ECDEC0BF01F0E516ECDEC0BF0330E4E
:101846004F6EEDEC0AF0320E4F6EEDEC0AF0310EF3
:101856004F6EEDEC0AF02EEF0CF007EF00F09A0E4B
:10186600F66E180EF76E000EF86E00EE01F010EE32
:1018760033F00900F5CFEEFFE550E150FAE100EE56
:1018860058F00D0EEE6AE806FDE1659065920001DE
:1018960016EF0CF0800F810F820F830F840F890FD4
:1018A6008A0F8B0F8C0F8D0F920F930F940F950F3E
:1018B600960F9419510002018019490001018A19F5
:0718C60041010001120A02BA
:1018CE00F09258505910D8B46FEF0CF071EF0CF035
:1018DE007DEF0CF002D87DEF0CF00500FA6E58503B
:1018EE00FD6E5950FE6EFF6AFA5012001200F09013
:1018FE005A505B10D8B486EF0CF088EF0CF094EFD2
:10190E000CF002D894EF0CF00500FA6E5A50FD6EF2
:10191E005B50FE6EFF6AFA5012001200F2925C509B
:10192E005D10D8B49DEF0CF09FEF0CF0ABEF0CF008
:10193E0002D8ABEF0CF00500FA6E5C50FD6E5D50F8
:10194E00FE6EFF6AFA50120012004F50D8A4B2EF8A
:10195E000CF0B4EF0CF0B8EF0CF0000E506EBEEFC2
:10196E000CF04F50020F4D6EF7EC0BF0506E5050C6
:10197E001200320E3A6E98EC0BF01200330E3A6EE5
:10198E0098EC0BF01200310E3A6E98EC0BF0120040
:020000040030CA
:0E000000FF02091FFF8181FF0FC00FE00F40BC
:00000001FF
