:0400000007EF00F016
:0A000800588203ED08F066EF0BF0DC
:0510000000256900005D
:101006000600F2A809EF08F00BEF08F014EF08F05D
:10101600F2A210EF08F012EF08F014EF08F09FECC0
:101026000BF0F0A619EF08F01BEF08F024EF08F01C
:10103600F0A020EF08F022EF08F024EF08F09DEC76
:101046000BF0F0A829EF08F02BEF08F034EF08F0CA
:10105600F0A230EF08F032EF08F034EF08F09BEC26
:101066000BF0F2A639EF08F03BEF08F056EF08F068
:10107600F2A040EF08F042EF08F056EF08F081A822
:1010860047EF08F049EF08F056EF08F02204D8A41D
:101096004FEF08F051EF08F056EF08F0000E226E01
:1010A600010E99EC0BF0F2A65BEF08F05DEF08F08D
:1010B60078EF08F0F2A062EF08F064EF08F078EF3E
:1010C60008F081B869EF08F06BEF08F078EF08F0E8
:1010D6002250D8A471EF08F073EF08F078EF08F00B
:1010E600010E226E000E99EC0BF0F2A67DEF08F0D1
:1010F6007FEF08F09AEF08F0F2A084EF08F086EF91
:1011060008F09AEF08F081AA8BEF08F08DEF08F04F
:101116009AEF08F02104D8A493EF08F095EF08F0B1
:101126009AEF08F0000E216E010E97EC0BF0F2A676
:101136009FEF08F0A1EF08F0BCEF08F0F2A0A6EFD1
:1011460008F0A8EF08F0BCEF08F081BAADEF08F0A0
:10115600AFEF08F0BCEF08F02150D8A4B5EF08F0C7
:10116600B7EF08F0BCEF08F0010E216E000E97EC09
:101176000BF0F2A6C1EF08F0C3EF08F0DEEF08F0BF
:10118600F2A0C8EF08F0CAEF08F0DEEF08F081AC75
:10119600CFEF08F0D1EF08F0DEEF08F02004D8A476
:1011A600D7EF08F0D9EF08F0DEEF08F0000E206E5A
:1011B600010E95EC0BF0F2A6E3EF08F0E5EF08F070
:1011C60000EF09F0F2A0EAEF08F0ECEF08F000EF0C
:1011D60009F081BCF1EF08F0F3EF08F000EF09F039
:1011E6002050D8A4F9EF08F0FBEF08F000EF09F063
:1011F600010E206E000E95EC0BF0F2A605EF09F03D
:1012060007EF09F022EF09F0F2A00CEF09F00EEF5C
:1012160009F022EF09F081AE13EF09F015EF09F09E
:1012260022EF09F01F04D8A41BEF09F01DEF09F007
:1012360022EF09F0000E1F6E010E93EC0BF0F2A6E2
:1012460027EF09F029EF09F044EF09F0F2A02EEF9D
:1012560009F030EF09F044EF09F081BE35EF09F0EF
:1012660037EF09F044EF09F01F50D8A43DEF09F01D
:101276003FEF09F044EF09F0010E1F6E000E93ECEC
:101286000BF058921100010E4B6E4450D8A44EEF4D
:1012960009F050EF09F0B7EF09F0000E4B6ECCEFF6
:1012A60009F04450D96EDA6ADF30E832E832070BCB
:1012B600466E010E476E462A63EF09F0D890473610
:1012C600462E61EF09F04750FF0A486E4450D96E2A
:1012D600DA6ADF50070B020DF3500B0FD96EDA6A8C
:1012E600DECF49F0DDCF4AF049C0D9FF4AC0DAFF68
:1012F6004850DF164450D96EDA6A45B002D0DF9EF8
:1013060001D0DF8ECCEF09F04450D96EDA6ADF30B7
:10131600E832E832070B466E010E476E462A96EF14
:1013260009F0D8904736462E94EF09F04450D96E0E
:10133600DA6ADF50070B020DF3500B0FD96EDA6A2B
:10134600DECF48F0DDCF49F048C0D9FF49C0DAFF0B
:101356004750DF124450D96EDA6A45B002D0DF9E9C
:1013660001D0DF8ECCEF09F04550466E476A4750F4
:10137600000AD8B4C1EF09F050EF09F04650000A50
:10138600D8B454EF09F0010AD8B487EF09F050EF4A
:1013960009F04B501200010E4A6E4450D8A4D6EF05
:1013A60009F0D8EF09F02FEF0AF0000E4A6E4FEF62
:1013B6000AF04450D96EDA6ADF30E832E832070BB9
:1013C600456E010E466E452AEBEF09F0D89046367B
:1013D600452EE9EF09F04650FF0A476E4450D96E94
:1013E600DA6ADF50070B020DF350150FD96EDA6A71
:1013F600DECF48F0DDCF49F048C0D9FF49C0DAFF5B
:101406004750DF164FEF0AF04450D96EDA6ADF30E4
:10141600E832E832070B456E010E466E452A16EF96
:101426000AF0D8904636452E14EF0AF04450D96E8D
:10143600DA6ADF50070B020DF350150FD96EDA6A20
:10144600DECF47F0DDCF48F047C0D9FF48C0DAFF0E
:101456004650DF124FEF0AF04450D96EDA6ADFBC0D
:1014660037EF0AF03AEF0AF0010E3BEF0AF0000EF2
:10147600456E466A4650000AD8B444EF0AF0D8EFE3
:1014860009F04550000AD8B4DCEF09F0010AD8B4D7
:1014960007EF0AF0D8EF09F04A501200010E456E28
:1014A600100E446E550E466EF6EC0AF0230E4E6E86
:1014B600C1EC0AF0010E456E100E446E3AC046F0BD
:1014C600F6EC0AF03A2A150E576E4B0E566EBE0E05
:1014D600E82EFED7562EFCD7572EFAD700D0010E8F
:1014E600456E100E446E420E466E22EC0BF0050E53
:1014F600426480EF0AF082EF0AF05DEF0AF0230EF5
:101506004C6E8AEC0AF05DEF0AF007EF00F04C50E3
:10151600D8A490EF0AF092EF0AF094EF0AF0C0EF29
:101526000AF040C04EF04C50D96EDA6ADF50070B15
:101536004D6E4E504D18F80B4D184E6E4C50D96EE0
:10154600DA6ADF30E832E832070B4D6E4D464D461B
:101556004D464E504D18C70B4D184E6E4E9C4C5076
:10156600D96EDA6ADFAC02D04E8E01D04E9E4E0E98
:10157600446E010E456E46EC09F012004E50D8A49A
:10158600C7EF0AF0C9EF0AF0CBEF0AF0F5EF0AF061
:1015960041C050F04E50D96EDA6ADF50070B4F6EDD
:1015A60050504F18F80B4F18506E4E50D96EDA6ADD
:1015B600DF30E832E832070B4F6E4F464F464F4654
:1015C60050504F18C70B4F18506E509C4E50D96E46
:1015D600DA6ADFAC02D0508E01D0509E500E4C6EAF
:1015E60047EC0BF012004650D8A4FCEF0AF0FEEFD1
:1015F6000AF000EF0BF021EF0BF0000EF2BE010E29
:10160600476EF29E4550030BAA6E44C0A9FF46C022
:10161600A8FFA69EA69CA684550EA76EAA0EA76E28
:10162600A682A6B219EF0BF01BEF0BF014EF0BF02E
:10163600A69447B002D0F29E01D0F28E1200465018
:10164600D8A428EF0BF02AEF0BF02CEF0BF046EFA7
:101656000BF0000EF2BE010E476EF29E4550030BD4
:10166600AA6E44C0A9FFA69EA69CA6800000000004
:101676004650D96EDA6AA8CFDFFFA69047B002D0EF
:10168600F29E01D0F28E1200010E4D6E4C50D8A47F
:101696004FEF0BF051EF0BF055EF0BF0000E4D6EC8
:1016A60064EF0BF04CC044F0CEEC09F04CC044F0B3
:1016B6004C50D96EDA6A000EDFBE010E456E46EC5E
:1016C60009F04D501200020EF66E170EF76E000E60
:1016D600F86E00EE01F010EE23F00900F5CFEEFFF4
:1016E600E550E150FAE100EE24F01F0EEE6AE8063E
:1016F600FDE158905892000151EF0AF0800F810FDA
:10170600820F830F840F890F8A0F8B0F8C0F8D0F1B
:0F171600920F930F940F950F960F01010101028F
:10172600F2901200F2901200F2901200F290120063
:0C173600F0921200F0901200F2921200EB
:020000040030CA
:0E000000FF02091FFF8181FF0FC00FE00F40BC
:00000001FF
