:0400000007EF00F016
:0A000800638203ED08F030EF0BF007
:0510000000256900005D
:101006000600FACF4FF0FBCF50F0F2A80DEF08F034
:101016000FEF08F018EF08F0F2A214EF08F016EF41
:1010260008F018EF08F0A9EC0BF0F0A61DEF08F099
:101036001FEF08F028EF08F0F0A024EF08F026EFE5
:1010460008F028EF08F0A7EC0BF0F0A82DEF08F059
:101056002FEF08F038EF08F0F0A234EF08F036EF83
:1010660008F038EF08F0A5EC0BF0F2A63DEF08F01B
:101076003FEF08F05AEF08F0F2A044EF08F046EF11
:1010860008F05AEF08F081A84BEF08F04DEF08F092
:101096005AEF08F04C04D8A453EF08F055EF08F0C7
:1010A6005AEF08F0000E4C6E010EA3EC0BF0F2A600
:1010B6005FEF08F061EF08F07CEF08F0F2A066EF52
:1010C60008F068EF08F07CEF08F081B86DEF08F0E3
:1010D6006FEF08F07CEF08F04C50D8A475EF08F0DD
:1010E60077EF08F07CEF08F0010E4C6E000EA3ECD3
:1010F6000BF0F2A681EF08F083EF08F09EEF08F000
:10110600F2A088EF08F08AEF08F09EEF08F081AAB7
:101116008FEF08F091EF08F09EEF08F04B04D8A48B
:1011260097EF08F099EF08F09EEF08F0000E4B6E6F
:10113600010EA1EC0BF0F2A6A3EF08F0A5EF08F064
:10114600C0EF08F0F2A0AAEF08F0ACEF08F0C0EF8D
:1011560008F081BAB1EF08F0B3EF08F0C0EF08F07D
:101166004B50D8A4B9EF08F0BBEF08F0C0EF08F079
:10117600010E4B6E000EA1EC0BF0F2A6C5EF08F0C7
:10118600C7EF08F0E2EF08F0F2A0CCEF08F0CEEFE0
:1011960008F0E2EF08F081ACD3EF08F0D5EF08F0E5
:1011A600E2EF08F04A04D8A4DBEF08F0DDEF08F020
:1011B600E2EF08F0000E4A6E010E9FEC0BF0F2A66D
:1011C600E7EF08F0E9EF08F004EF09F0F2A0EEEF20
:1011D60008F0F0EF08F004EF09F081BCF5EF08F035
:1011E600F7EF08F004EF09F04A50D8A4FDEF08F035
:1011F600FFEF08F004EF09F0010E4A6E000E9FECB7
:101206000BF0F2A609EF09F00BEF09F026EF09F053
:10121600F2A010EF09F012EF09F026EF09F081AE07
:1012260017EF09F019EF09F026EF09F04904D8A4E1
:101236001FEF09F021EF09F026EF09F0000E496EC5
:10124600010E9DEC0BF0F2A62BEF09F02DEF09F045
:1012560048EF09F0F2A032EF09F034EF09F048EF59
:1012660009F081BE39EF09F03BEF09F048EF09F0CC
:101276004950D8A441EF09F043EF09F048EF09F0CF
:10128600010E496E000E9DEC0BF09DAC4DEF09F082
:101296004FEF09F058EF09F09EAC54EF09F056EF06
:1012A60009F058EF09F0ABEC0BF0F2AA5DEF09F08C
:1012B6005FEF09F068EF09F0F2A464EF09F066EF5A
:1012C60009F068EF09F094EC0BF09DA06DEF09F0C2
:1012D6006FEF09F078EF09F09EA074EF09F076EF52
:1012E60009F078EF09F08EEC0BF09DA27DEF09F086
:1012F6007FEF09F088EF09F09EA284EF09F086EFF0
:1013060009F088EF09F04BEC0BF050C0FBFF4FC023
:10131600FAFF63921100010E586E5150D8A496EF51
:1013260009F098EF09F0FFEF09F0000E586E14EF80
:101336000AF05150D96EDA6ADF30E832E832070B2C
:10134600536E010E546E532AABEF09F0D890543603
:10135600532EA9EF09F05450FF0A556E5150D96E1D
:10136600DA6ADF50070B020DF350350FD96EDA6AD1
:10137600DECF56F0DDCF57F056C0D9FF57C0DAFFA3
:101386005550DF165150D96EDA6A52B002D0DF9E40
:1013960001D0DF8E14EF0AF05150D96EDA6ADF30D1
:1013A600E832E832070B536E010E546E532ADEEF15
:1013B60009F0D8905436532EDCEF09F05150D96E0F
:1013C600DA6ADF50070B020DF350350FD96EDA6A71
:1013D600DECF55F0DDCF56F055C0D9FF56C0DAFF47
:1013E6005450DF125150D96EDA6A52B002D0DF9EE5
:1013F60001D0DF8E14EF0AF05250536E546A5450E7
:10140600000AD8B409EF0AF098EF09F05350000A21
:10141600D8B49CEF09F0010AD8B4CFEF09F098EFE1
:1014260009F058501200010E576E5150D8A41EEF05
:101436000AF020EF0AF077EF0AF0000E576E97EFEA
:101446000AF05150D96EDA6ADF30E832E832070B1B
:10145600526E010E536E522A33EF0AF0D89053366D
:10146600522E31EF0AF05350FF0A546E5150D96E86
:10147600DA6ADF50070B020DF3503F0FD96EDA6AB6
:10148600DECF55F0DDCF56F055C0D9FF56C0DAFF96
:101496005450DF1697EF0AF05150D96EDA6ADF30F2
:1014A600E832E832070B526E010E536E522A5EEF97
:1014B6000AF0D8905336522E5CEF0AF05150D96E8E
:1014C600DA6ADF50070B020DF3503F0FD96EDA6A66
:1014D600DECF54F0DDCF55F054C0D9FF55C0DAFF4A
:1014E6005350DF1297EF0AF05150D96EDA6ADFBC1B
:1014F6007FEF0AF082EF0AF0010E83EF0AF0000E8A
:10150600526E536A5350000AD8B48CEF0AF020EF9B
:101516000AF05250000AD8B424EF0AF0010AD8B4EF
:101526004FEF0AF020EF0AF0575012005150D8A49E
:101536009FEF0AF0A1EF0AF0A3EF0AF0DBEF0AF043
:10154600CA945150D96EDA6A040ED926DF38030BD5
:10155600526ECA505218FC0B5218CA6E5150D96EB0
:10156600DA6A040ED926DF500F0B526E52465246E7
:101576005246CA505218870B5218CA6E5150D96E2D
:10158600DA6A030ED926DF50236E5150D96EDA6A15
:10159600030ED926DF50CC6E9E929D825150D96E95
:1015A600DA6ADECF01F0DDCF02F0F28EF28CCA8469
:1015B60012005B50D8A4E2EF0AF0E4EF0AF0E6EF7F
:1015C6000AF010EF0BF02AC05DF05B50D96EDA6AB4
:1015D600DF50070B5C6E5D505C18F80B5C185D6E97
:1015E6005B50D96EDA6ADF30E832E832070B5C6EA0
:1015F6005C465C465C465D505C18C70B5C185D6ECD
:101606005D9C5B50D96EDA6ADFAC02D05D8E01D08C
:101616005D9E5D0E596E11EC0BF01200010E5A6EB6
:101626005950D8A419EF0BF01BEF0BF01FEF0BF07E
:10163600000E5A6E2EEF0BF059C051F016EC0AF060
:1016460059C051F05950D96EDA6A000EDFBE010E4C
:10165600526E8EEC09F05A501200F80EF66E160E07
:10166600F76E000EF86E00EE2BF010EE23F0090078
:10167600F5CFEEFFE550E150FAE100EE01F02A0E5B
:10168600EE6AE806FDE163906392000164EF0BF0F9
:101696009E9223C0CCFF01500210D8B455EF0BF038
:1016A60057EF0BF063EF0BF002D863EF0BF005007A
:1016B600FA6E0150FD6E0250FE6EFF6AFA5012007D
:1016C6001200340E5E6E170E5F6E6250CF0B20094D
:1016D600626E0F0E6212000E616E4D0E5B6EDCECDA
:1016E6000AF05E0E516E99EC0AF078EF0BF007EFF8
:1016F60000F0800F810F820F830F840F890F8A0FEE
:101706008B0F8C0F8D0F920F930F940F950F960FD3
:05171600010101010BBF
:10171C009E90000ECF6E05C0CEFF1200F2940850C2
:10172C00D76E07C0D6FF1200020E8C1A1200F29070
:10173C001200F2901200F2901200F2901200F0924D
:0E174C001200F0901200F29212009E9C120009
:020000040030CA
:0E000000FF02091FFF8181FF0FC00FE00F40BC
:00000001FF
