:0400000007EF00F016
:0A000800678213ED0AF032EF0CF0EE
:0510000000256900005D
:101006004750D8A409EF08F00BEF08F00FEF08F0EF
:10101600000E4A6E91EF08F0010E4A6E73EF08F06B
:101026004750D96EDA6A030ED926DF50D8A41EEFD0
:1010360008F020EF08F023EF08F0F19C91EF08F09C
:101046004750D96EDA6A030ED926DE04D8A42EEFED
:1010560008F030EF08F00BEF08F0F18C91EF08F094
:101066004750D96EDA6A030ED926DF50D8A43EEF70
:1010760008F040EF08F043EF08F0F19A91EF08F01E
:101086004750D96EDA6A030ED926DE04D8A44EEF8D
:1010960008F050EF08F00BEF08F0F18A91EF08F036
:1010A6004750D96EDA6A030ED926DF50D8A45EEF10
:1010B60008F060EF08F063EF08F0F19891EF08F0A0
:1010C6004750D96EDA6A030ED926DE04D8A46EEF2D
:1010D60008F070EF08F00BEF08F0F18891EF08F0D8
:1010E6004750D96EDA6A040ED926DF50486E496A2F
:1010F6004950000AD8B482EF08F00BEF08F04850C8
:10110600000AD8B413EF08F0010AD8B433EF08F098
:10111600030AD8B453EF08F00BEF08F04A50120058
:10112600010E4E6E4750D8A49BEF08F09DEF08F0D5
:1011360004EF09F0000E4E6E19EF09F04750D96E14
:10114600DA6ADF30E832E832070B496E010E4A6E82
:10115600492AB0EF08F0D8904A36492EAEEF08F08B
:101166004A50FF0A4B6E4750D96EDA6ADF50070BBA
:10117600020DF3500B0FD96EDA6ADECF4CF0DDCFDD
:101186004DF04CC0D9FF4DC0DAFF4B50DF1647502B
:10119600D96EDA6A48B002D0DF9E01D0DF8E19EF31
:1011A60009F04750D96EDA6ADF30E832E832070BC9
:1011B600496E010E4A6E492AE3EF08F0D8904A3686
:1011C600492EE1EF08F04750D96EDA6ADF50070B77
:1011D600020DF3500B0FD96EDA6ADECF4BF0DDCF7E
:1011E6004CF04BC0D9FF4CC0DAFF4A50DF124750D3
:1011F600D96EDA6A48B002D0DF9E01D0DF8E19EFD1
:1012060009F04850496E4A6A4A50000AD8B40EEFAF
:1012160009F09DEF08F04950000AD8B4A1EF08F094
:10122600010AD8B4D4EF08F09DEF08F04E50120032
:10123600010E4D6E4750D8A423EF09F025EF09F0B3
:101246007CEF09F0000E4D6E9CEF09F04750D96E09
:10125600DA6ADF30E832E832070B486E010E496E73
:10126600482A38EF09F0D8904936482E36EF09F06B
:101276004950FF0A4A6E4750D96EDA6ADF50070BAB
:10128600020DF350150FD96EDA6ADECF4BF0DDCFC3
:101296004CF04BC0D9FF4CC0DAFF4A50DF169CEF2A
:1012A60009F04750D96EDA6ADF30E832E832070BC8
:1012B600486E010E496E482A63EF09F0D890493608
:1012C600482E61EF09F04750D96EDA6ADF50070BF6
:1012D600020DF350150FD96EDA6ADECF4AF0DDCF74
:1012E6004BF04AC0D9FF4BC0DAFF4950DF129CEFE2
:1012F60009F04750D96EDA6ADFBC84EF09F087EF50
:1013060009F0010E88EF09F0000E486E496A49504F
:10131600000AD8B491EF09F025EF09F04850000A09
:10132600D8B429EF09F0010AD8B454EF09F025EF33
:1013360009F04D5012004750D8A4A4EF09F0A6EFCB
:1013460009F0AAEF09F0000E4A6E11EF0AF0010E3D
:101356004A6EF3EF09F04750D96EDA6ADE50DE10B6
:10136600D8A4B8EF09F0BAEF09F0BCEF09F0A6EF80
:1013760009F04750D96EDA6ADECF5EF0DDCF5FF056
:1013860011EF0AF04750D96EDA6ADE50DE10D8A4A3
:10139600CFEF09F0D1EF09F0D3EF09F0A6EF09F08E
:1013A6004750D96EDA6ADECF5CF0DDCF5DF011EF23
:1013B6000AF04750D96EDA6ADE50DE10D8A4E6EF9E
:1013C60009F0E8EF09F0EAEF09F0A6EF09F0475057
:1013D600D96EDA6ADECF5AF0DDCF5BF011EF0AF094
:1013E6004750D96EDA6A040ED926DF50486E496A2C
:1013F6004950000AD8B402EF0AF011EF0AF048503B
:10140600000AD8B4AEEF09F0010AD8B4C5EF09F066
:10141600030AD8B4DCEF09F011EF0AF04A501200C3
:101426000600FACF3FF0FBCF40F0E1CF41F0E2CF2C
:1014360042F0D9CF43F0DACF44F0F3CF45F0F4CF02
:1014460046F0F2A829EF0AF02BEF0AF036EF0AF081
:10145600F2A230EF0AF032EF0AF036EF0AF095EC1E
:101466000CF05AEF0AF0F0A63BEF0AF03DEF0AF057
:1014760048EF0AF0F0A042EF0AF044EF0AF048EF16
:101486000AF07EEC0CF05AEF0AF0F0A84DEF0AF0E5
:101496004FEF0AF05AEF0AF0F0A254EF0AF056EFB7
:1014A6000AF05AEF0AF067EC0CF05AEF0AF046C061
:1014B600F4FF45C0F3FF44C0DAFF43C0D9FF42C082
:1014C600E2FF41C0E1FF40C0FBFF3FC0FAFF679269
:1014D6001100010E396E3450D8A474EF0AF076EF7D
:1014E6000AF07AEF0AF0000E396EB0EF0AF03450C7
:1014F600D96EDA6ADF30E832E832070B356E010E54
:10150600366E352A89EF0AF0D8903636352E87EFB3
:101516000AF03450D96EDA6ADF50070B020DF35029
:101526000B0FD96EDA6ADECF37F0DDCF38F037C071
:10153600D9FF38C0DAFF3650DF1A3450D96EDA6A6E
:101546003450E16EE26ADFAEB0EF0AF0E7BEAFEF0D
:101556000AF0E78EB0EF0AF0E79E395012004750C6
:10156600D8A4B8EF0AF0BAEF0AF0BEEF0AF0000E00
:101576004A6EEBEF0AF0F28EF28CCDEF0AF0F288AB
:10158600010E4A6EEBEF0AF0F086C3EF0AF0F08820
:10159600C3EF0AF04750D96EDA6A040ED926DF5037
:1015A600486E496A4950000AD8B4DCEF0AF0BAEF2F
:1015B6000AF04850000AD8B4C2EF0AF0010AD8B4BB
:1015C600C7EF0AF0030AD8B4CAEF0AF0BAEF0AF076
:1015D6004A5012005150D8A4F3EF0AF0F5EF0AF082
:1015E600F9EF0AF0000E536E24EF0BF066C054F0CC
:1015F6005150D96EDA6ADF50070B526E54505218AA
:10160600F80B5218546E5150D96EDA6ADF30E83250
:10161600E832070B526E5246524652465450521802
:10162600C70B5218546E549C5150D96EDA6ADFAC0F
:1016360002D0548E01D0549E540E4F6EF7EC0BF030
:10164600536E535012004750D8A42CEF0BF02EEFD8
:101656000BF032EF0BF0000E4A6E5DEF0BF0010E51
:101666004A6E3FEF0BF0F2985DEF0BF0F0965DEFF0
:101676000BF0F0985DEF0BF04750D96EDA6A040E66
:10168600D926DF50486E496A4950000AD8B44EEF51
:101696000BF02EEF0BF04850000AD8B436EF0BF0E3
:1016A600010AD8B439EF0BF0030AD8B43CEF0BF0BB
:1016B6002EEF0BF04A5012004750D8A465EF0BF0FE
:1016C60067EF0BF06BEF0BF0000E4A6E96EF0BF028
:1016D600010E4A6E78EF0BF0F29296EF0BF0F09057
:1016E60096EF0BF0F09296EF0BF04750D96EDA6A50
:1016F600040ED926DF50486E496A4950000AD8B40C
:1017060087EF0BF096EF0BF04850000AD8B46FEF56
:101716000BF0010AD8B472EF0BF0030AD8B475EFD8
:101726000BF096EF0BF04A5012003A50D8A49EEFF9
:101736000BF0A0EF0BF0A2EF0BF0CCEF0BF063C0B9
:101746003CF03A50D96EDA6ADF50070B3B6E3C50DC
:101756003B18F80B3B183C6E3A50D96EDA6ADF300C
:10176600E832E832070B3B6E3B463B463B463C5075
:101776003B18C70B3B183C6E3C9C3A50D96EDA6A54
:10178600DFAC02D03C8E01D03C9E3C0E346E6CEC3D
:101796000AF012005350D8A4D3EF0BF0D5EF0BF09C
:1017A600D9EF0BF0000E546EF5EF0BF053C047F077
:1017B60026EC0BF0546E53C047F05FEC0BF0546E02
:1017C60053C047F003EC08F0546E53C051F0ACEC34
:1017D6000CF053C047F09EEC09F053C047F0B2EC52
:1017E6000AF0546E54501200010E506E4F50D8A499
:1017F600FFEF0BF001EF0CF005EF0CF0000E506E52
:1018060014EF0CF04FC047F01BEC09F04FC047F047
:101816004F50D96EDA6A000EDFBE010E486E93ECA9
:1018260008F0505012002B0E536ECDEC0BF0250E27
:10183600536ECDEC0BF01F0E536ECDEC0BF0330E4A
:10184600516EEDEC0AF0320E516EEDEC0AF0310EEF
:10185600516EEDEC0AF02EEF0CF007EF00F09A0E49
:10186600F66E180EF76E000EF86E00EE01F010EE32
:1018760033F00900F5CFEEFFE550E150FAE100EE56
:101886005AF00D0EEE6AE806FDE1679067920001D8
:1018960016EF0CF0800F810F820F830F840F890FD4
:1018A6008A0F8B0F8C0F8D0F920F930F940F950F3E
:1018B600960FAA1951000201A019490001018019C9
:0718C60041010001120A02BA
:1018CE00F0925A505B10D8B46FEF0CF071EF0CF031
:1018DE007DEF0CF002D87DEF0CF00500FA6E5A5039
:1018EE00FD6E5B50FE6EFF6AFA5012001200F09011
:1018FE005C505D10D8B486EF0CF088EF0CF094EFCE
:10190E000CF002D894EF0CF00500FA6E5C50FD6EF0
:10191E005D50FE6EFF6AFA5012001200F2925E5097
:10192E005F10D8B49DEF0CF09FEF0CF0ABEF0CF006
:10193E0002D8ABEF0CF00500FA6E5E50FD6E5F50F4
:10194E00FE6EFF6AFA50120012005150D8A4B2EF88
:10195E000CF0B4EF0CF0B8EF0CF0000E526EBEEFC0
:10196E000CF05150020F4F6EF7EC0BF0526E5250BE
:10197E0012000B0E3E6E260E3D6E5E0EE82EFED74C
:10198E003D2EFCD73E2EFAD7330E3A6E98EC0BF066
:10199E001200320E3A6E98EC0BF01200310E3A6EC7
:0619AE0098EC0BF01200A2
:020000040030CA
:0E000000FF02091FFF8181FF0FC00FE00F40BC
:00000001FF
