:0400000007EF00F016
:0A000800468203ED08F046EF09F010
:0510000000256900005D
:101006000600F2A809EF08F00BEF08F014EF08F05D
:10101600F2A210EF08F012EF08F014EF08F082ECDD
:1010260009F0F0A619EF08F01BEF08F024EF08F01E
:10103600F0A020EF08F022EF08F024EF08F080EC93
:1010460009F0F0A829EF08F02BEF08F034EF08F0CC
:10105600F0A230EF08F032EF08F034EF08F07EEC43
:1010660009F0F2A639EF08F03BEF08F056EF08F06A
:10107600F2A040EF08F042EF08F056EF08F081A822
:1010860047EF08F049EF08F056EF08F02204D8A41D
:101096004FEF08F051EF08F056EF08F0000E226E01
:1010A600010E7CEC09F0F2A65BEF08F05DEF08F0AC
:1010B60078EF08F0F2A062EF08F064EF08F078EF3E
:1010C60008F081B869EF08F06BEF08F078EF08F0E8
:1010D6002250D8A471EF08F073EF08F078EF08F00B
:1010E600010E226E000E7CEC09F0F2A67DEF08F0F0
:1010F6007FEF08F09AEF08F0F2A084EF08F086EF91
:1011060008F09AEF08F081AA8BEF08F08DEF08F04F
:101116009AEF08F02104D8A493EF08F095EF08F0B1
:101126009AEF08F0000E216E010E7AEC09F0F2A695
:101136009FEF08F0A1EF08F0BCEF08F0F2A0A6EFD1
:1011460008F0A8EF08F0BCEF08F081BAADEF08F0A0
:10115600AFEF08F0BCEF08F02150D8A4B5EF08F0C7
:10116600B7EF08F0BCEF08F0010E216E000E7AEC26
:1011760009F0F2A6C1EF08F0C3EF08F0DEEF08F0C1
:10118600F2A0C8EF08F0CAEF08F0DEEF08F081AC75
:10119600CFEF08F0D1EF08F0DEEF08F02004D8A476
:1011A600D7EF08F0D9EF08F0DEEF08F0000E206E5A
:1011B600010E78EC09F0F2A6E3EF08F0E5EF08F08F
:1011C60000EF09F0F2A0EAEF08F0ECEF08F000EF0C
:1011D60009F081BCF1EF08F0F3EF08F000EF09F039
:1011E6002050D8A4F9EF08F0FBEF08F000EF09F063
:1011F600010E206E000E78EC09F0F2A605EF09F05C
:1012060007EF09F022EF09F0F2A00CEF09F00EEF5C
:1012160009F022EF09F081AE13EF09F015EF09F09E
:1012260022EF09F01F04D8A41BEF09F01DEF09F007
:1012360022EF09F0000E1F6E010E76EC09F0F2A601
:1012460027EF09F029EF09F044EF09F0F2A02EEF9D
:1012560009F030EF09F044EF09F081BE35EF09F0EF
:1012660037EF09F044EF09F01F50D8A43DEF09F01D
:101276003FEF09F044EF09F0010E1F6E000E76EC09
:1012860009F046921100C20EF66E120EF76E000EAF
:10129600F86E00EE01F010EE22F00900F5CFEEFF39
:1012A600E550E150FAE100EE23F01D0EEE6AE80685
:1012B600FDE146904692000172EF09F0800F810F22
:1012C600820F830F840F890F8A0F8B0F8C0F8D0F60
:1012D600920F930F940F950F960F0101010172EF74
:1012E60009F007EF00F0F2901200F2901200F2906F
:1012F6001200F2901200F0921200F0901200F29298
:021306001200D3
:020000040030CA
:0E000000FF02091FFF8181FF0FC00FE00F40BC
:00000001FF
